{
  "_format": "hh-sol-artifact-1",
  "contractName": "Voting",
  "sourceName": "contracts/Voting.sol",
  "abi": [
    {
      "inputs": [],
      "stateMutability": "nonpayable",
      "type": "constructor"
    },
    {
      "inputs": [],
      "name": "Voting__AlreadyVoted",
      "type": "error"
    },
    {
      "inputs": [],
      "name": "Voting__DelegateMoreThanWeight",
      "type": "error"
    },
    {
      "inputs": [],
      "name": "Voting__LoopInDelegation",
      "type": "error"
    },
    {
      "inputs": [],
      "name": "Voting__NotOwner",
      "type": "error"
    },
    {
      "inputs": [],
      "name": "Voting__NotRegistered",
      "type": "error"
    },
    {
      "inputs": [],
      "name": "Voting__NotRegisteredForProposal",
      "type": "error"
    },
    {
      "inputs": [],
      "name": "Voting__OutOfBound",
      "type": "error"
    },
    {
      "inputs": [],
      "name": "Voting__ProposalAlreadyFinalized",
      "type": "error"
    },
    {
      "inputs": [],
      "name": "Voting__RegistrationDeadlinePassed",
      "type": "error"
    },
    {
      "inputs": [],
      "name": "Voting__SelfDelegationIllegal",
      "type": "error"
    },
    {
      "inputs": [],
      "name": "Voting__VotingHasNotStarted",
      "type": "error"
    },
    {
      "inputs": [],
      "name": "Voting__VotingNotOver",
      "type": "error"
    },
    {
      "inputs": [],
      "name": "Voting__VotingOver",
      "type": "error"
    },
    {
      "anonymous": false,
      "inputs": [
        {
          "indexed": false,
          "internalType": "uint256",
          "name": "_proposalIndex",
          "type": "uint256"
        },
        {
          "indexed": false,
          "internalType": "string",
          "name": "_name",
          "type": "string"
        },
        {
          "indexed": false,
          "internalType": "uint256",
          "name": "_deadline",
          "type": "uint256"
        },
        {
          "indexed": false,
          "internalType": "uint256",
          "name": "_registrationDeadline",
          "type": "uint256"
        }
      ],
      "name": "ProposalCreated",
      "type": "event"
    },
    {
      "anonymous": false,
      "inputs": [
        {
          "indexed": true,
          "internalType": "uint256",
          "name": "_proposalIndex",
          "type": "uint256"
        }
      ],
      "name": "ProposalFinalized",
      "type": "event"
    },
    {
      "anonymous": false,
      "inputs": [
        {
          "indexed": true,
          "internalType": "uint256",
          "name": "_proposalIndex",
          "type": "uint256"
        },
        {
          "indexed": true,
          "internalType": "address",
          "name": "_voter",
          "type": "address"
        }
      ],
      "name": "ProposalRegistered",
      "type": "event"
    },
    {
      "anonymous": false,
      "inputs": [
        {
          "indexed": true,
          "internalType": "uint256",
          "name": "_proposalIndex",
          "type": "uint256"
        },
        {
          "indexed": true,
          "internalType": "address",
          "name": "_voter",
          "type": "address"
        },
        {
          "indexed": false,
          "internalType": "uint256",
          "name": "_weight",
          "type": "uint256"
        }
      ],
      "name": "Voted",
      "type": "event"
    },
    {
      "anonymous": false,
      "inputs": [
        {
          "indexed": true,
          "internalType": "address",
          "name": "_voter",
          "type": "address"
        },
        {
          "indexed": false,
          "internalType": "uint256",
          "name": "_weight",
          "type": "uint256"
        }
      ],
      "name": "VoterAdded",
      "type": "event"
    },
    {
      "inputs": [
        {
          "internalType": "address",
          "name": "_voter",
          "type": "address"
        },
        {
          "internalType": "uint256",
          "name": "_weight",
          "type": "uint256"
        }
      ],
      "name": "addVoter",
      "outputs": [],
      "stateMutability": "nonpayable",
      "type": "function"
    },
    {
      "inputs": [
        {
          "internalType": "string",
          "name": "_name",
          "type": "string"
        },
        {
          "internalType": "uint256",
          "name": "_duration",
          "type": "uint256"
        },
        {
          "internalType": "uint256",
          "name": "_registrationDuration",
          "type": "uint256"
        }
      ],
      "name": "createProposal",
      "outputs": [],
      "stateMutability": "nonpayable",
      "type": "function"
    },
    {
      "inputs": [
        {
          "internalType": "address",
          "name": "_to",
          "type": "address"
        },
        {
          "internalType": "uint256",
          "name": "_proposalIndex",
          "type": "uint256"
        },
        {
          "internalType": "uint256",
          "name": "_portion",
          "type": "uint256"
        }
      ],
      "name": "delegate",
      "outputs": [],
      "stateMutability": "nonpayable",
      "type": "function"
    },
    {
      "inputs": [
        {
          "internalType": "uint256",
          "name": "_proposalIndex",
          "type": "uint256"
        }
      ],
      "name": "finalizeProposal",
      "outputs": [],
      "stateMutability": "nonpayable",
      "type": "function"
    },
    {
      "inputs": [
        {
          "internalType": "uint256",
          "name": "_proposalIndex",
          "type": "uint256"
        }
      ],
      "name": "getProposal",
      "outputs": [
        {
          "internalType": "string",
          "name": "name",
          "type": "string"
        },
        {
          "internalType": "uint256",
          "name": "voteCount",
          "type": "uint256"
        },
        {
          "internalType": "uint256",
          "name": "deadline",
          "type": "uint256"
        },
        {
          "internalType": "uint256",
          "name": "registrationDeadline",
          "type": "uint256"
        },
        {
          "internalType": "bool",
          "name": "finalized",
          "type": "bool"
        }
      ],
      "stateMutability": "view",
      "type": "function"
    },
    {
      "inputs": [],
      "name": "getProposalCount",
      "outputs": [
        {
          "internalType": "uint256",
          "name": "",
          "type": "uint256"
        }
      ],
      "stateMutability": "view",
      "type": "function"
    },
    {
      "inputs": [
        {
          "internalType": "address",
          "name": "_voter",
          "type": "address"
        }
      ],
      "name": "getVoter",
      "outputs": [
        {
          "internalType": "bool",
          "name": "voted",
          "type": "bool"
        },
        {
          "internalType": "bool",
          "name": "isRegistered",
          "type": "bool"
        },
        {
          "internalType": "uint256",
          "name": "weight",
          "type": "uint256"
        },
        {
          "internalType": "address",
          "name": "delegateTo",
          "type": "address"
        }
      ],
      "stateMutability": "view",
      "type": "function"
    },
    {
      "inputs": [
        {
          "internalType": "address",
          "name": "_voter",
          "type": "address"
        },
        {
          "internalType": "uint256",
          "name": "_proposalIndex",
          "type": "uint256"
        }
      ],
      "name": "isRegisteredForProposal",
      "outputs": [
        {
          "internalType": "bool",
          "name": "",
          "type": "bool"
        }
      ],
      "stateMutability": "view",
      "type": "function"
    },
    {
      "inputs": [],
      "name": "owner",
      "outputs": [
        {
          "internalType": "address",
          "name": "",
          "type": "address"
        }
      ],
      "stateMutability": "view",
      "type": "function"
    },
    {
      "inputs": [
        {
          "internalType": "uint256",
          "name": "",
          "type": "uint256"
        }
      ],
      "name": "proposals",
      "outputs": [
        {
          "internalType": "string",
          "name": "name",
          "type": "string"
        },
        {
          "internalType": "uint256",
          "name": "voteCount",
          "type": "uint256"
        },
        {
          "internalType": "uint256",
          "name": "deadline",
          "type": "uint256"
        },
        {
          "internalType": "uint256",
          "name": "registrationDeadline",
          "type": "uint256"
        },
        {
          "internalType": "bool",
          "name": "finalized",
          "type": "bool"
        }
      ],
      "stateMutability": "view",
      "type": "function"
    },
    {
      "inputs": [
        {
          "internalType": "uint256",
          "name": "_proposalIndex",
          "type": "uint256"
        }
      ],
      "name": "registerForProposal",
      "outputs": [],
      "stateMutability": "nonpayable",
      "type": "function"
    },
    {
      "inputs": [
        {
          "internalType": "uint256",
          "name": "_proposalIndex",
          "type": "uint256"
        }
      ],
      "name": "vote",
      "outputs": [],
      "stateMutability": "nonpayable",
      "type": "function"
    },
    {
      "inputs": [
        {
          "internalType": "address",
          "name": "",
          "type": "address"
        }
      ],
      "name": "voters",
      "outputs": [
        {
          "internalType": "bool",
          "name": "voted",
          "type": "bool"
        },
        {
          "internalType": "bool",
          "name": "isRegistered",
          "type": "bool"
        },
        {
          "internalType": "uint256",
          "name": "weight",
          "type": "uint256"
        },
        {
          "internalType": "address",
          "name": "delegate",
          "type": "address"
        }
      ],
      "stateMutability": "view",
      "type": "function"
    }
  ],
  "bytecode": "0x608060405234801561001057600080fd5b50336000806101000a81548173ffffffffffffffffffffffffffffffffffffffff021916908373ffffffffffffffffffffffffffffffffffffffff160217905550611ec0806100606000396000f3fe608060405234801561001057600080fd5b50600436106100cf5760003560e01c80638da5cb5b1161008c578063bdcdd3c111610066578063bdcdd3c114610215578063c08cc02d14610231578063c7f758a81461024f578063d4f50f9814610283576100cf565b80638da5cb5b146101a8578063a3ec138d146101c6578063b9f05f2f146101f9576100cf565b80630121b93f146100d4578063013cf08b146100f05780630185921e1461012457806322e2e12d1461014057806344c845cd1461015c5780635652077c1461018c575b600080fd5b6100ee60048036038101906100e991906115f2565b6102b6565b005b61010a600480360381019061010591906115f2565b61056b565b60405161011b9594939291906116d9565b60405180910390f35b61013e60048036038101906101399190611791565b610646565b005b61015a60048036038101906101559190611919565b610b0f565b005b61017660048036038101906101719190611988565b610cf5565b60405161018391906119c8565b60405180910390f35b6101a660048036038101906101a191906115f2565b610d9f565b005b6101b0610fa8565b6040516101bd91906119f2565b60405180910390f35b6101e060048036038101906101db9190611a0d565b610fcc565b6040516101f09493929190611a3a565b60405180910390f35b610213600480360381019061020e9190611988565b611036565b005b61022f600480360381019061022a91906115f2565b6111d8565b005b6102396113c2565b6040516102469190611a7f565b60405180910390f35b610269600480360381019061026491906115f2565b6113cf565b60405161027a9594939291906116d9565b60405180910390f35b61029d60048036038101906102989190611a0d565b611501565b6040516102ad9493929190611a3a565b60405180910390f35b60011515600160003373ffffffffffffffffffffffffffffffffffffffff1673ffffffffffffffffffffffffffffffffffffffff16815260200190815260200160002060000160019054906101000a900460ff16151514610343576040517fa97b491e00000000000000000000000000000000000000000000000000000000815260040160405180910390fd5b6000600160003373ffffffffffffffffffffffffffffffffffffffff1673ffffffffffffffffffffffffffffffffffffffff16815260200190815260200160002090506001151581600401600084815260200190815260200160002060009054906101000a900460ff161515146103e6576040517f3f0904bd00000000000000000000000000000000000000000000000000000000815260040160405180910390fd5b600115158160000160009054906101000a900460ff16151503610435576040517fd16df7f100000000000000000000000000000000000000000000000000000000815260040160405180910390fd5b60006002838154811061044b5761044a611a9a565b5b906000526020600020906005020190508060030154421015610499576040517f62028bd200000000000000000000000000000000000000000000000000000000815260040160405180910390fd5b80600201544211156104d7576040517fd700502a00000000000000000000000000000000000000000000000000000000815260040160405180910390fd5b60018260000160006101000a81548160ff021916908315150217905550816001015481600101600082825461050c9190611af8565b925050819055503373ffffffffffffffffffffffffffffffffffffffff16837f1abe610cf2bf87e57dcc1181fcf5ac0934e843d8344ab9eed6e86c799f62585e846001015460405161055e9190611a7f565b60405180910390a3505050565b6002818154811061057b57600080fd5b906000526020600020906005020160009150905080600001805461059e90611b5b565b80601f01602080910402602001604051908101604052809291908181526020018280546105ca90611b5b565b80156106175780601f106105ec57610100808354040283529160200191610617565b820191906000526020600020905b8154815290600101906020018083116105fa57829003601f168201915b5050505050908060010154908060020154908060030154908060040160009054906101000a900460ff16905085565b60011515600160003373ffffffffffffffffffffffffffffffffffffffff1673ffffffffffffffffffffffffffffffffffffffff16815260200190815260200160002060000160019054906101000a900460ff161515146106d3576040517fa97b491e00000000000000000000000000000000000000000000000000000000815260040160405180910390fd5b6000600160003373ffffffffffffffffffffffffffffffffffffffff1673ffffffffffffffffffffffffffffffffffffffff1681526020019081526020016000209050600115158160000160009054906101000a900460ff16151503610765576040517fd16df7f100000000000000000000000000000000000000000000000000000000815260040160405180910390fd5b3373ffffffffffffffffffffffffffffffffffffffff168473ffffffffffffffffffffffffffffffffffffffff16036107ca576040517f9a855a5200000000000000000000000000000000000000000000000000000000815260040160405180910390fd5b8181600101541015610808576040517fa4030f5100000000000000000000000000000000000000000000000000000000815260040160405180910390fd5b5b600073ffffffffffffffffffffffffffffffffffffffff16600160008673ffffffffffffffffffffffffffffffffffffffff1673ffffffffffffffffffffffffffffffffffffffff16815260200190815260200160002060020160009054906101000a900473ffffffffffffffffffffffffffffffffffffffff1673ffffffffffffffffffffffffffffffffffffffff161415801561093657503373ffffffffffffffffffffffffffffffffffffffff16600160008673ffffffffffffffffffffffffffffffffffffffff1673ffffffffffffffffffffffffffffffffffffffff16815260200190815260200160002060020160009054906101000a900473ffffffffffffffffffffffffffffffffffffffff1673ffffffffffffffffffffffffffffffffffffffff1614155b156109a557600160008573ffffffffffffffffffffffffffffffffffffffff1673ffffffffffffffffffffffffffffffffffffffff16815260200190815260200160002060020160009054906101000a900473ffffffffffffffffffffffffffffffffffffffff169350610809565b3373ffffffffffffffffffffffffffffffffffffffff168473ffffffffffffffffffffffffffffffffffffffff1603610a0a576040517f5e1b829c00000000000000000000000000000000000000000000000000000000815260040160405180910390fd5b81816001016000828254610a1e9190611b8c565b92505081905550818160030160008581526020019081526020016000206000828254610a4a9190611af8565b925050819055506000600160008673ffffffffffffffffffffffffffffffffffffffff1673ffffffffffffffffffffffffffffffffffffffff16815260200190815260200160002090508060000160009054906101000a900460ff1615610aec578260028581548110610ac057610abf611a9a565b5b90600052602060002090600502016001016000828254610ae09190611af8565b92505081905550610b08565b82816001016000828254610b009190611af8565b925050819055505b5050505050565b60011515600160003373ffffffffffffffffffffffffffffffffffffffff1673ffffffffffffffffffffffffffffffffffffffff16815260200190815260200160002060000160019054906101000a900460ff16151514610b9c576040517fa97b491e00000000000000000000000000000000000000000000000000000000815260040160405180910390fd5b6000600280549050905060026040518060a00160405280868152602001600081526020018542610bcc9190611af8565b81526020018442610bdd9190611af8565b81526020016000151581525090806001815401808255809150506001900390600052602060002090600502016000909190919091506000820151816000019081610c279190611d6c565b5060208201518160010155604082015181600201556060820151816003015560808201518160040160006101000a81548160ff02191690831515021790555050507f5d072faeaf3fe9518eca824577834e1efc3ff209025796dd8819b72706cd0bd5818560028481548110610c9f57610c9e611a9a565b5b90600052602060002090600502016002015460028581548110610cc557610cc4611a9a565b5b906000526020600020906005020160030154604051610ce79493929190611e3e565b60405180910390a150505050565b6000600280549050821115610d36576040517f92ae4d0500000000000000000000000000000000000000000000000000000000815260040160405180910390fd5b600160008473ffffffffffffffffffffffffffffffffffffffff1673ffffffffffffffffffffffffffffffffffffffff168152602001908152602001600020600401600083815260200190815260200160002060009054906101000a900460ff16905092915050565b60011515600160003373ffffffffffffffffffffffffffffffffffffffff1673ffffffffffffffffffffffffffffffffffffffff16815260200190815260200160002060000160019054906101000a900460ff16151514610e2c576040517fa97b491e00000000000000000000000000000000000000000000000000000000815260040160405180910390fd5b600280549050811115610e6b576040517f92ae4d0500000000000000000000000000000000000000000000000000000000815260040160405180910390fd5b60028181548110610e7f57610e7e611a9a565b5b906000526020600020906005020160020154421015610eca576040517fda1b7c1f00000000000000000000000000000000000000000000000000000000815260040160405180910390fd5b6001151560028281548110610ee257610ee1611a9a565b5b906000526020600020906005020160040160009054906101000a900460ff16151503610f3a576040517f52bbd6f100000000000000000000000000000000000000000000000000000000815260040160405180910390fd5b600160028281548110610f5057610f4f611a9a565b5b906000526020600020906005020160040160006101000a81548160ff021916908315150217905550807fe1f88450adc0106842577be8461a06e8d81ccd807a16165d60b56cca3197c5ba60405160405180910390a250565b60008054906101000a900473ffffffffffffffffffffffffffffffffffffffff1681565b60016020528060005260406000206000915090508060000160009054906101000a900460ff16908060000160019054906101000a900460ff16908060010154908060020160009054906101000a900473ffffffffffffffffffffffffffffffffffffffff16905084565b60008054906101000a900473ffffffffffffffffffffffffffffffffffffffff1673ffffffffffffffffffffffffffffffffffffffff163373ffffffffffffffffffffffffffffffffffffffff16146110bb576040517fc63501f300000000000000000000000000000000000000000000000000000000815260040160405180910390fd5b6000600160008473ffffffffffffffffffffffffffffffffffffffff1673ffffffffffffffffffffffffffffffffffffffff168152602001908152602001600020905060018160000160016101000a81548160ff02191690831515021790555081816001018190555060008160000160006101000a81548160ff02191690831515021790555060008160020160006101000a81548173ffffffffffffffffffffffffffffffffffffffff021916908373ffffffffffffffffffffffffffffffffffffffff1602179055508273ffffffffffffffffffffffffffffffffffffffff167f56aa1768b52ddcdda65c5561181844717c2eed4bb3c848376d4420860da04dae836040516111cb9190611a7f565b60405180910390a2505050565b60011515600160003373ffffffffffffffffffffffffffffffffffffffff1673ffffffffffffffffffffffffffffffffffffffff16815260200190815260200160002060000160019054906101000a900460ff16151514611265576040517fa97b491e00000000000000000000000000000000000000000000000000000000815260040160405180910390fd5b6002805490508111156112a4576040517f92ae4d0500000000000000000000000000000000000000000000000000000000815260040160405180910390fd5b6000600282815481106112ba576112b9611a9a565b5b906000526020600020906005020190508060030154421115611308576040517f7aea73d000000000000000000000000000000000000000000000000000000000815260040160405180910390fd5b6000600160003373ffffffffffffffffffffffffffffffffffffffff1673ffffffffffffffffffffffffffffffffffffffff1681526020019081526020016000209050600181600401600085815260200190815260200160002060006101000a81548160ff0219169083151502179055503373ffffffffffffffffffffffffffffffffffffffff16837f37a25c4f10509a80c6e280b123b326571f95fa2b2c26269a4b45d71e7b21f49960405160405180910390a3505050565b6000600280549050905090565b6060600080600080600280549050861115611416576040517f92ae4d0500000000000000000000000000000000000000000000000000000000815260040160405180910390fd5b60006002878154811061142c5761142b611a9a565b5b90600052602060002090600502019050806000018160010154826002015483600301548460040160009054906101000a900460ff1684805461146d90611b5b565b80601f016020809104026020016040519081016040528092919081815260200182805461149990611b5b565b80156114e65780601f106114bb576101008083540402835291602001916114e6565b820191906000526020600020905b8154815290600101906020018083116114c957829003601f168201915b50505050509450955095509550955095505091939590929450565b6000806000806000600160008773ffffffffffffffffffffffffffffffffffffffff1673ffffffffffffffffffffffffffffffffffffffff16815260200190815260200160002090508060000160009054906101000a900460ff168160000160019054906101000a900460ff1682600101548360020160009054906101000a900473ffffffffffffffffffffffffffffffffffffffff169450945094509450509193509193565b6000604051905090565b600080fd5b600080fd5b6000819050919050565b6115cf816115bc565b81146115da57600080fd5b50565b6000813590506115ec816115c6565b92915050565b600060208284031215611608576116076115b2565b5b6000611616848285016115dd565b91505092915050565b600081519050919050565b600082825260208201905092915050565b60005b8381101561165957808201518184015260208101905061163e565b60008484015250505050565b6000601f19601f8301169050919050565b60006116818261161f565b61168b818561162a565b935061169b81856020860161163b565b6116a481611665565b840191505092915050565b6116b8816115bc565b82525050565b60008115159050919050565b6116d3816116be565b82525050565b600060a08201905081810360008301526116f38188611676565b905061170260208301876116af565b61170f60408301866116af565b61171c60608301856116af565b61172960808301846116ca565b9695505050505050565b600073ffffffffffffffffffffffffffffffffffffffff82169050919050565b600061175e82611733565b9050919050565b61176e81611753565b811461177957600080fd5b50565b60008135905061178b81611765565b92915050565b6000806000606084860312156117aa576117a96115b2565b5b60006117b88682870161177c565b93505060206117c9868287016115dd565b92505060406117da868287016115dd565b9150509250925092565b600080fd5b600080fd5b7f4e487b7100000000000000000000000000000000000000000000000000000000600052604160045260246000fd5b61182682611665565b810181811067ffffffffffffffff82111715611845576118446117ee565b5b80604052505050565b60006118586115a8565b9050611864828261181d565b919050565b600067ffffffffffffffff821115611884576118836117ee565b5b61188d82611665565b9050602081019050919050565b82818337600083830152505050565b60006118bc6118b784611869565b61184e565b9050828152602081018484840111156118d8576118d76117e9565b5b6118e384828561189a565b509392505050565b600082601f830112611900576118ff6117e4565b5b81356119108482602086016118a9565b91505092915050565b600080600060608486031215611932576119316115b2565b5b600084013567ffffffffffffffff8111156119505761194f6115b7565b5b61195c868287016118eb565b935050602061196d868287016115dd565b925050604061197e868287016115dd565b9150509250925092565b6000806040838503121561199f5761199e6115b2565b5b60006119ad8582860161177c565b92505060206119be858286016115dd565b9150509250929050565b60006020820190506119dd60008301846116ca565b92915050565b6119ec81611753565b82525050565b6000602082019050611a0760008301846119e3565b92915050565b600060208284031215611a2357611a226115b2565b5b6000611a318482850161177c565b91505092915050565b6000608082019050611a4f60008301876116ca565b611a5c60208301866116ca565b611a6960408301856116af565b611a7660608301846119e3565b95945050505050565b6000602082019050611a9460008301846116af565b92915050565b7f4e487b7100000000000000000000000000000000000000000000000000000000600052603260045260246000fd5b7f4e487b7100000000000000000000000000000000000000000000000000000000600052601160045260246000fd5b6000611b03826115bc565b9150611b0e836115bc565b9250828201905080821115611b2657611b25611ac9565b5b92915050565b7f4e487b7100000000000000000000000000000000000000000000000000000000600052602260045260246000fd5b60006002820490506001821680611b7357607f821691505b602082108103611b8657611b85611b2c565b5b50919050565b6000611b97826115bc565b9150611ba2836115bc565b9250828203905081811115611bba57611bb9611ac9565b5b92915050565b60008190508160005260206000209050919050565b60006020601f8301049050919050565b600082821b905092915050565b600060088302611c227fffffffffffffffffffffffffffffffffffffffffffffffffffffffffffffffff82611be5565b611c2c8683611be5565b95508019841693508086168417925050509392505050565b6000819050919050565b6000611c69611c64611c5f846115bc565b611c44565b6115bc565b9050919050565b6000819050919050565b611c8383611c4e565b611c97611c8f82611c70565b848454611bf2565b825550505050565b600090565b611cac611c9f565b611cb7818484611c7a565b505050565b5b81811015611cdb57611cd0600082611ca4565b600181019050611cbd565b5050565b601f821115611d2057611cf181611bc0565b611cfa84611bd5565b81016020851015611d09578190505b611d1d611d1585611bd5565b830182611cbc565b50505b505050565b600082821c905092915050565b6000611d4360001984600802611d25565b1980831691505092915050565b6000611d5c8383611d32565b9150826002028217905092915050565b611d758261161f565b67ffffffffffffffff811115611d8e57611d8d6117ee565b5b611d988254611b5b565b611da3828285611cdf565b600060209050601f831160018114611dd65760008415611dc4578287015190505b611dce8582611d50565b865550611e36565b601f198416611de486611bc0565b60005b82811015611e0c57848901518255600182019150602085019450602081019050611de7565b86831015611e295784890151611e25601f891682611d32565b8355505b6001600288020188555050505b505050505050565b6000608082019050611e5360008301876116af565b8181036020830152611e658186611676565b9050611e7460408301856116af565b611e8160608301846116af565b9594505050505056fea264697066735822122012b0fe5706514b741db57f294ba3f5e8bc8f9f65992d9cb7304c4b9cbceb2bcd64736f6c63430008120033",
  "linkReferences": {},
  "deployedLinkReferences": {}
}